:020000040800F2
:10000000F80B0020D9020008DB4700082D46000845
:10001000D9470008DD2800089D54000800000000B2
:100020000000000000000000000000005D48000823
:10003000412C000800000000DD4700088D48000842
:10004000F3020008F3020008F3020008F3020008BC
:10005000F3020008F3020008712C0008F302000804
:10006000F3020008F3020008F3020008F30200089C
:10007000F3020008F3020008F3020008F30200088C
:10008000F3020008F3020008F30200080000000079
:10009000000000000000000000000000F302000863
:1000A000F3020008F3020008F3020008F30200085C
:1000B000F30200080000000000000000F302000846
:1000C000F3020008F3020008F3020008F30200083C
:1000D000F3020008F302000805540008F3020008C8
:1000E000F3020008F3020008000000000000000016
:1000F0000000000000000000000000000000000000
:1001000000000000000000000000000000000000EF
:1001100000000000000000004D4900080000000041
:10012000F3020008F3020008F3020008F3020008DB
:10013000F3020008000000000000000000000000C2
:10014000F3020008F3020008F3020008F3020008BB
:10015000F3020008F3020008F3020008F3020008AB
:10016000F3020008F3020008000000000000000095
:1001700000000000F3020008000000000000000082
:10018000F3020008F3020008F302000800F002F88E
:1001900000F092F80AA090E8000C82448344AAF18F
:1001A0000107DA4501D100F087F8AFF2090EBAE88D
:1001B0000F0013F0010F18BFFB1A43F0010318479B
:1001C000CC640000EC640000103A24BF78C878C109
:1001D000FAD8520724BF30C830C144BF04680C604D
:1001E000704700000023002400250026103A28BF95
:1001F00078C1FBD8520728BF30C148BF0B60704799
:100200006E2900F00D82702900F05383662906F0F4
:100210001081652906F00D81672906F00A816129A0
:1002200006F0098103681B0A28BF41F08001692993
:1002300000F0BA81642900F0B781752900F0B4811B
:100240006F2900F0E082782900F01F83E92900F08F
:100250007B82E42900F07882F52900F07582EF298D
:1002600000F0DD82F82900F01E830368DB0928BF57
:1002700041F08001632901F08A80732901F08F80A9
:10028000E32901F09A80F32901F09F800020704754
:100290001FB506F0C1F801F00FF90400002000219D
:1002A00005F040FB401C60600020002105F024FBAD
:1002B000E0601FBD10B510BD01F0D0F81146FFF78A
:1002C000E7FF05F099FA01F031FC03B4FFF7F2FF04
:1002D00003BC01F075FC000009488047094800474D
:1002E000FEE7FEE7FEE7FEE7FEE7FEE7FEE7FEE7E6
:1002F000FEE7FEE704480549054A064B7047000043
:10030000114900088D010008F8050020F80B0020B5
:10031000F8070020F807002053EA020C00F069807B
:100320002DE9F04B4FF00006002B1FBFB3FA83F509
:1003300003FA05F424FA05F65E4012BF1643B2FA3A
:1003400082F502FA05F4C5F120051EBF22FA05FC6C
:1003500044EA0C04203556EA044C4FEA144418BF12
:10036000641C4FF000084FF00009904271EB030C41
:1003700039D3002919BFB1FA81F701FA07F6B0FAAB
:1003800080F700FA07F6C7F120071EBF20FA07FC26
:1003900046EA0C062037B6FBF4FCA7EB0507103F36
:1003A00007F01F0BCBF120060CFA0BFB2CFA06F61C
:1003B00044BFB3460026202FA4BF5E464FF0000B7B
:1003C0005BEA060C08BF4FF0010B19EB0B09ABFB06
:1003D000027C48EB0608C01B06FB02CC0BFB03CCDF
:1003E00071EB0C01C1E70B46024641464846BDE8A9
:1003F000F08B13B54FF000004FF00001AFF3008019
:10040000BDE81C40704700000FB41CB5084B06AA9D
:100410007B4469460090059800F01BF904460020D3
:10042000694600F029F920461CBC5DF814FB000069
:10043000650200004FF000020429C0F0128010F0A5
:10044000030C00F01B80CCF1040CBCF1020F18BFB0
:1004500000F8012BA8BF20F8022BA1EB0C0100F043
:100460000DB85FEAC17C24BF00F8012B00F8012B16
:1004700048BF00F8012B70474FF0000200B513464B
:1004800094469646203922BFA0E80C50A0E80C50B4
:10049000B1F12001BFF4F7AF090728BFA0E80C5065
:1004A00048BF0CC05DF804EB890028BF40F8042B5E
:1004B00008BF704748BF20F8022B11F0804F18BFCB
:1004C00000F8012B704770477047704710B500F077
:1004D00015FB006810BD10B5044600F00FFB04606A
:1004E00010BD70B5044685690068C10601D5302687
:1004F00000E02026C00707D070BDD4E901213046B6
:100500009047206A401C20626D1EF6D570BD70B504
:10051000044685690078C00707D170BDD4E9012180
:1005200020209047206A401C20626D1EF6D570BDC9
:1005300009684A0501D540B27047C905FCD500B22B
:10054000704709684A0501D5C0B27047C905FCD596
:1005500080B2704770B50C460546012A05D0287850
:10056000800600D5EA69002302E0012305E05B1C58
:10057000934202D2E05C0028F9D1A869E618C01ABB
:10058000A861286A184428622846FFF7AAFF04E0F9
:10059000D5E9012114F8010B9047B442F8D328465D
:1005A000FFF7B5FF70BD00002DE9F04106460024BD
:1005B00010687529314616A510D0FFF7B9FF00283D
:1005C00002DA404213A507E031688A0701D512A577
:1005D00002E0490704D511A5012401E0FFF7B1FFAE
:1005E00000210A2206F1240709E0B0FBF2FCB0FB6F
:1005F000F2F302FB1C00303078541846491C0028E6
:10060000F3D123462A463046BDE8F04100F0C8BA8F
:10061000000000002D0000002B0000002000000062
:1006200011680268006A530501D508700AE0D30515
:1006300001D5088006E0130603D5C217C1E9000200
:1006400000E008600120704701694A1C02610878D7
:10065000704700B58FB0CDE9013100210591054902
:100660007944CDE903101146684600F02DF90FB02A
:1006700000BD0000E5FFFFFF0A6802F8010B0A60F9
:10068000704700002DE9FF5F15468A460446DFF8F3
:10069000AC80F8440027D8E900103E46CDE90010B0
:1006A00010E03AF816106A4602A800F0B2FE411CAB
:1006B00007D02178890603D5E269391891420DD80F
:1006C0000744761C2078800602D5E069B84205DD33
:1006D000AE42E6DB3AF816000028E2D1A069C01B62
:1006E000A0612046FFF7FDFED8E90010CDE900101B
:1006F000002017E03AF818106A4602A800F089FEB8
:10070000B0F1FF3F81460BD000250DF1080B05E04D
:10071000D4E901211BF8050090476D1C4D45F7D326
:1007200008F10100B0428046E4DB206A38442062D0
:100730002046FFF7ECFE00F003B80000FA5E000070
:100740003FBCBDE8C09F00002DE9F0418046D21DAE
:1007500022F007020025D2E90002F52915A614D0DF
:10076000011E72F1000106DA0023D0EB030063EBF7
:10077000020211A608E0D8F800108B0701D50FA6D9
:1007800002E0490701D50EA601251146002408F113
:10079000240704E000F0B6F930323A55641C50EA00
:1007A0000102F7D12B46324621464046BDE8F041D2
:1007B00000F0F6B9000000002D0000002B00000042
:1007C0002000000030B4002100F1240408E002F011
:1007D0000705D208303542EA4372DB086554491CEC
:1007E00052EA0305F3D10468002310A2250707D5B8
:1007F000A40600D421B1C46901230DA2641EC46102
:1008000030BC00F0CDB910B5044621461068FFF7A2
:1008100098FE02462046BDE810400023D2E7D21DD4
:1008200022F00701D1E90023CCE70000000000001E
:1008300030000000F0B40D460188090502D5214CB6
:100840007C4402E01F4C7C440E34002100F124065D
:1008500008E002F00F071209E75D42EA03721B0984
:100860007754491C52EA0307F3D102780023120798
:1008700004D5702D06D009B1022311342246F0BCF4
:1008800000F08EB901231034F8E770B504460D4628
:1008900021461068FFF755FE024629462046BDE86E
:1008A00070400023C6E7D21D22F00703D3E90023DE
:1008B000C0E70368126843F0200303600823C361A4
:1008C0000023B7E7545D00002DE9F05F8946044638
:1008D0004FF0000ADFF874B1FB44C0F820A02046B6
:1008E000E1688847002874D0252806D0D4E9012182
:1008F0009047206A401C2062F1E700265F462046B0
:10090000E16888472028054607DB312D05D2781994
:1009100010F8200C08B10643F1E7B00701D526F026
:100920000406C4F81CA00027C4F818A02A2D09D07A
:10093000284604F010FF38B304EB8708303DC8F8B0
:10094000185019E059F8041B204604EB8702916106
:10095000E1688847012F054618D1E069002820DAB0
:1009600026F020061DE0D8F8180000EB800005EB0B
:1009700040003038C8F818002046E168884705462E
:1009800004F0E9FE0028EED1012F0AD02E2D08D167
:100990002046E16888477F1C0546022F46F0200666
:1009A000C4DBA069002803DA404246F00106A061DA
:1009B000F00701D026F010066C2D0BD0682D09D061
:1009C0004C2D39D06A2D35D0742D35D07A2D33D0B9
:1009D00016E038E0E1682F4620468847B8420546D1
:1009E00009D16C2F26D04FF48060E1680643204681
:1009F0008847054604E06C2F1AD04FF480700643F8
:100A00000DB3A5F14100192802D8203546F400663F
:100A10004A462946204626604E46FFF7F1FB80B144
:100A200001280BD0F61D26F0070000F1080956E753
:100A30004020E4E78020D8E70020D6E706F104094B
:100A40004DE7284652E7206A00F002B8E45C000057
:100A500030BCBDE8C09F00000FB4002300B589B0D2
:100A60000CA900910B99CB60214B7B440693214B41
:100A70007B44079304236FF00042CDE901321E4A04
:100A80007A446B4608920246002005F036FD09B014
:100A90005DF814FB70B506464FF0FF3015460C4666
:100AA000324686B00091CDE90101694600200490EC
:100AB00004A8FFF7D1FF02460498211825B108B118
:100AC000084600E020462860049800280DD0002A3F
:100AD00002DD0098884208D03246081B694600941F
:100AE000CDE9010404A8FFF7B7FF06B070BD000010
:100AF000650900007D0900000B01000000487047F7
:100B00009405002030B5B0F10A024FEA900E71F161
:100B100000034EEA817EB0EB0E0061EB91014FEADB
:100B2000101E4EEA017E10EB0E0041EB11114FEA50
:100B3000102E4EEA016E10EB0E0041EB11214FEA30
:100B4000104E4EEA014E10EB0E0041EB11414018E1
:100B500041F100014FEAD00040EA41704FEAD10173
:100B600010EB80054FEA810444EA907444EB0104E1
:100B70006D1944EB0404521BA3414FF0000348BF1E
:100B80000A3200D530BD401C41F1000130BD10B526
:100B9000044600F089FC0068005D00F0010010BD13
:100BA0002DE9F0470D4699469246044600F1240887
:100BB0000168880604D5E06921F01001216000E099
:100BC0000120A84201DD471B00E00027A1697A1936
:100BD00002EB0900081AA0612078C00602D4204662
:100BE000FFF77FFC002608E0D4E901211AF806008F
:100BF0009047206A401C761C20624E45F4DB20782A
:100C0000C0060AD52046FFF76CFC06E0D4E90121B6
:100C100030209047206A401C2062381EA7F101074F
:100C2000F4DC07E0D4E9012118F805009047206AB8
:100C3000401C2062281EA5F10105F3DC2046FFF7C9
:100C400066FC2078000602D50220BDE8F08701206E
:100C5000FBE770472DE9FF4F0C461E464FF0FF376C
:100C60008BB0D2E90001DDF860800A908A46C1F3BA
:100C70000A5505B93D46002108464FF00000BAF17B
:100C8000000F00F4400005DA00EB80004FF4400153
:100C900001EA50004FEA9059B9F1010F00DDB94661
:100CA0000A9850EA4A000ED044F61050A5F2FF35DB
:100CB00045432F14B8F1000F1ED07542291E1EDDCA
:100CC000C9F100021CE0B8F1010F4FF0000001D0A3
:100CD000302103E0F24305E02154401CB042FBDB2D
:100CE00030460022002121540B99C1F80880C1E947
:100CF00000200FB000F0BCB9BD1B6D1CDEE74A46FA
:100D000000DA694206A800F09FFE06AB93E80700F0
:100D100003AB83E8070050460A9901F0AAF98DE871
:100D20000700A0F500501F3800900398002D0ADD41
:100D300042F21F014A460844002303A90390684673
:100D400001F056FC09E0A0F500504A461F38002388
:100D500003A90390684601F075FC8DE807000004C4
:100D6000000C03D04FF0FF30410800E01046B8F10E
:100D7000000F03D00022009215461EE0751E05D418
:100D8000FFF7C0FE303262556D1EF9D5B346012221
:100D9000084302D000227F1C04E02078302801D1D3
:100DA00000227F1E002A099784D01DE0112D07DA4A
:100DB000FFF7A8FE303262556D1C50EA0102F5D1F2
:100DC000084302D00098C8B10EE00021681E05E07B
:100DD000235C625C63542254401E491C8142F7DB51
:100DE000AB46A81B401E0990002004F80B000B988E
:100DF000099AC0F80880C0E9002B7AE711264FF065
:100E0000000857E72DE9F04F88460446D21D22F02E
:100E1000070191B0D1E90001CDE90A0104F03FFBDF
:100E200002460B98C00F01D02D2007E020688107F3
:100E300001D52B2002E0202101EAC000032A0990FD
:100E400001D0072A05DB03464146204600F038FB67
:100E50000BE12078800601D5E06900E00620B8F1BA
:100E6000650F814606D0B8F1660F18D0B8F1670F4C
:100E700070D131E00020B9F1110F009001DB112396
:100E800001E009F101030AAA01A90CA8FFF7E2FE9B
:100E9000DDE90C70002609F10105834647E00120D9
:100EA0004B4600904FF000470AAA01A90CA8FFF793
:100EB000D1FEDDE90DB00C995D46002610B909F1AF
:100EC00001000D18B9EB050003D4C0F1FF3609F19C
:100ED0000105A5EB09002BE0B9F1010F01DA4FF094
:100EE00001090020B9F1110F0090484601DD1123DE
:100EF00000E003460AAA01A90CA8FFF7ABFEDDE952
:100F00000C704D4600268346207800070AD4AB4576
:100F100000DA5D4601A8012D04DD411911F8011C1C
:100F2000302907D04F4502DA17F1040F04DA012007
:100F300082460FE06D1EEEE7002F02DCED1B3E4403
:100F400003E0781CA84200DD7D1CB81B00F1010AFB
:100F50004FF000472078000703D4AA4501DB4FF08B
:100F6000FF3A0021B7F1004F0DF143088DF843100F
:100F700024D002202B23002F01DA7F422D230A21C7
:100F8000021EA0F1010000DC5FB197FBF1FC97FBB2
:100F9000F1F201FB1C7C17460CF1300C08F801CD76
:100FA000EEE7A8F1010003702188090501D545216C
:100FB00000E06521A0F1010800F8011C09980FA9C3
:100FC000A1EB0807FF1D00B10120411901EBEA70F8
:100FD000A1693844081A401EA0612078C00602D4D6
:100FE0002046FFF77EFA099828B1D4E901219047FD
:100FF000206A401C20622078C00622D52046FFF7D8
:1010000070FA1EE0002E04DBB34502DD01A8805D0E
:1010100000E03020D4E901219047206A401C206282
:10102000761CAAF101005FEA000A0AD100F044FA36
:10103000C0680168405CD4E901219047206A401CE7
:101040002062281EA5F10105DCDC07E0D4E90121BE
:1010500018F8010B9047206A401C2062381EA7F147
:101060000107F3DC2046FFF752FA032011B041E6F6
:1010700030BCBDE8C08F00002DE9F04F04460D469E
:10108000D21D22F0070089B0D0E9009748463946C2
:1010900004F005FA0246F80F01D02D2307E020687E
:1010A000810701D52B2302E0202101EAC0038DF83E
:1010B00020300BB1012000E00020032A824601D03D
:1010C000072A04DB2946204600F0FAF93FE12078A0
:1010D000800601D40D2500E0E569C7F30A560D2D01
:1010E00049DA00214FEA175B08464FF00000002F55
:1010F00000F4400007DA00EB80004FF4400100EB01
:10110000D07001EA60008115012901DD4FF0FF3147
:1011100000224FEA850CBCF1180F06D31346ACF140
:1011200018004FF08052C24003E04FF4801323FABE
:101130000CF30CF10C0CBCF1200F04D3ACF1200C1F
:1011400009FA0CF001E007FA0CF000294FF0004812
:1011500001DD18B90FE00ED140450CD319EB02099F
:101160005F4121B9404502D19F4329EA0209BBEB07
:10117000175F00D0761C2088000502D57B48784494
:1011800002E07A487844193808AA302302F80A3075
:10119000037C0AF10101002E0AF1020A53546A4647
:1011A00002DC4FF0300101E04FF031014FF0010857
:1011B0008DF8001002D0A6F2FF3603E059EA47018D
:1011C00000D06B4E002D02DC2178090704D54FF0CA
:1011D00002082E218DF80110C44600210BE0C7F350
:1011E00003433F01C35C491C6D1E02F8083005290A
:1011F00008F1010801DA002DF1DC00210CE000EB20
:101200001973491C1B786D1E082902F808304FEA33
:10121000091908F1010801DA002DF0DC21688B06BC
:1012200002D516E0A8F10108E04505DD02EB080350
:1012300013F8013C302BF5D0B8F1000F09DD02EBBB
:10124000080313F8013C2E2B03D1090701D4A8F1A0
:101250000108002D05DD3E2102F808106D1E08F181
:101260000108407C002E02F8080008F1010804DAA9
:101270002D20764202F8080002E02B2002F8080038
:101280000A214FF47A70864208F101080BDB96FBC5
:10129000F0F3303302F8083096FBF0F308F1010860
:1012A00000FB136601E0642E0CDB642096FBF0F378
:1012B000303302F8083096FBF0F308F1010800FB28
:1012C000136601E00A2E06DB96FBF1F0303002F8DF
:1012D000080008F1010896FBF1F001FB10603030C6
:1012E00002F80800A16908F1010808EB050202EB09
:1012F0000A00081AA0612078C00602D42046FFF731
:10130000F0F8216A08AE01EB0A00206204E0D4E99B
:10131000012116F8010B9047BAF1010AF7D22078A3
:10132000C00602D52046FFF7DCF86E4609E016F845
:10133000010B3E280FD0D4E901219047206A401CC0
:101340002062B8F10108F2D22046FFF7E0F809B0B8
:10135000032000F00FB8206A2844206203E0D4E99B
:101360000121302090476D1EEBD3F8E76254000056
:1013700002FCFFFF30BCBDE8C08F10B5436913B15C
:10138000AFF3008001E0FFF7E5F8012010BD12780F
:1013900000F124010A7000224A700122EDE7116871
:1013A0004FF0FF32E9E710B5436913B1AFF30080A6
:1013B00001E0FFF767F9012010BD128800F1240158
:1013C00082840022C2840122EDE711684FF0FF32CF
:1013D000E9E7426842B1016811F8013B23B1521EAE
:1013E000C0E90012184670470121C160881E70478D
:1013F00042685AB1C368016843B983688B4205D01B
:10140000491E521CC0E90012002070474FF0FF3007
:10141000704770B516460C46054600F045F803685F
:1014200093F80101012806D0FF2C0FD8185D68B190
:1014300001202C7070BDD3F807013246214603F21B
:10144000071303442846BDE8704018474FF0FF30AB
:1014500070BD000000487047940500207546FFF7F6
:10146000F9FFAE4605006946534620F00700854661
:1014700018B020B5FEF73EFFBDE820404FF0000653
:101480004FF000074FF000084FF0000B21F007016C
:10149000AC46ACE8C009ACE8C009ACE8C009ACE8AF
:1014A000C0098D467047000010B500F005F8001D1A
:1014B00010BD00BF7144000000487047B405002013
:1014C0002DE9F0411F46044603260168072A01F46E
:1014D000006004DB08B116A505E016A503E008B11D
:1014E00015A500E015A521F010002060A069C01E20
:1014F000A0610FB1401EA0612046FEF7F2FF4FB180
:10150000D4E9012138469047206A401C2062C01C63
:10151000206206E0206AFAE7D4E9012115F8010B00
:101520009047761EF8D22046FEF7F1FFBDE8F08125
:101530004E414E006E616E00494E4600696E660077
:101540002DE9FF4F06468BB00878FF2806D0491CCE
:101550002D2805D000244FF0000908E000200CE001
:101560000124F8E709EB8903491C00EB43090878DB
:10157000FF28F7D114B1C9F1000081461078002589
:101580002C46AA4629462D2801D02B2804D1521CCE
:101590002D2813D0002082468B461078FF280FD0CC
:1015A0004FF0000C0A21521CA5FB017804FB0181BD
:1015B00005FB0C11C5194BEB0104EEE70120EAE72E
:1015C000002108464FF00000BAF1000F02D000EBF6
:1015D00080004008C0F38157012F01DD4FF0FF3735
:1015E0000E9955EA040009EB01080BD04FF00209EF
:1015F00018F5FA7F16DA4FEACA70002F706008DD1E
:10160000012007E04FEACA70C6E900B00FB000F051
:1016100013BA00203060FFF771FAC0F8009018216B
:10162000084616E0B8F5FA7F18DD002F02DAF74811
:10163000784401E0F6487844D0E90010C6E900108B
:1016400040EACA707060FFF759FAC0F800901421A0
:1016500008460FB000F0F3B904F0E8BE00210846D8
:101660004FF00000B8F10001099002DAC7F1000262
:1016700000E03A4601DAC8F1000106A800F0E4F9FA
:1016800006AB93E8070003AB83E8070044F23E0093
:101690005BEA04010090584604D144F21E012C4636
:1016A0005D460091210C0904014306D100992404F0
:1016B00044EA15442D041039009104F07F410143A0
:1016C00006D10099240244EA15642D0208390091DC
:1016D00004F07041014306D10099240144EA1574D5
:1016E0002D01091F009104F04041014306D10099EA
:1016F000A40044EA9574AD00891E009104F00041F5
:10170000084304D100986D196441401E00904FF0C9
:1017100001033A466846B8F1000FCDE9014503A937
:1017200002DD00F0A4FF01E000F077FFBAF1000F46
:1017300004460D4601D084F00044002108464FF0D5
:101740000000099940F2FF77484010F00C0F07D1D4
:1017500024F00040284303D0C4F30A50B84212D109
:10176000FFF7CCF9C0F80090C4F30A50B8420AD190
:10177000A8487844D0E90010C6E9001004F0004100
:101780000843706042E7C6E900543FE72DE9FF4F88
:101790001F464FF0000A4FF0FF38454691B0D7E999
:1017A0000146CDF83CA0FFF787FEC0680168405CA9
:1017B0001090B96912986D1C8847396A814688472C
:1017C0000028F6D1B9F1FF3F0AD0002E24F4D064EE
:1017D00011DDB9F12B0F08D0B9F12D0F0BD102E0BB
:1017E000404615B013E744F48064B96912986D1C43
:1017F0008847761E8146600504A901D52D2000E0AA
:101800002B20002E01F1010B0DF130088DF8100096
:101810003FDDB9F1690F08D0B9F1490F05D0B9F131
:101820006E0F02D0B9F14E0F1CD13B4601A80095B6
:1018300080E85002DDE912126FF0020004F061FE50
:10184000C11CCED10EE0B96912986D1C8847814643
:101850001398761E44F4007405600F98401C002E07
:101860000F9016DDB9F1300FEDD0B9F1780F02D03D
:10187000B9F1580F0DD10F9801280AD13B46CDE997
:101880000054DDE91212001F029604F038FEC11C5C
:10189000A7D1109989453ED144F0800406E0139900
:1018A000681CAAF1010A44F400740860B9696D1C4F
:1018B0001298761E884730288146F0D02BE0109988
:1018C000894505D1200603D4761E44F0800418E033
:1018D000484603F040FF08B3761E0DF123018B4507
:1018E00044F4007408D2A9F130000BF8010B200673
:1018F00007D5AAF1010003E0200602D40AF1010095
:101900008246A00502D51399681C0860B96912982F
:101910006D1C88478146002ED1DC53E0002E51DD3E
:10192000B9F1650F02D0B9F1450F4BD1A00549D5EA
:10193000B9696D1C1298761E24F440748847002EF5
:1019400081460CDD2B2804D0B9F12D0F07D144F4CA
:101950008074B96912986D1C8847761E8146E0052F
:1019600001D52D2100E02B2108F8011BCDF80080C6
:1019700021E0761E0DF13901884544F400740CD243
:10198000A9F1300010F0FF0088F8000002D10099A2
:10199000884509D908F1010806E0E00501D51E488F
:1019A00001E042F20F708246B96912986D1C8847B7
:1019B000814613980560002E04DD484603F0CBFEF7
:1019C0000028D6D1F96912988847FF2053468BF832
:1019D000000088F8000000200A900B9004AA0CA9CF
:1019E0000AA8FFF7ADFDA00502D46FF00100F8E6EC
:1019F00014F0240F12D0E0071CD13868DDE90A1278
:101A0000031D3B600068C0E9001213E08050000035
:101A100072500000364F0000F1D8FFFF0AA9684657
:101A200003F086FEE00705D13868009A011D396091
:101A3000006802602846D4E630BCBDE8C08F30BCE8
:101A4000BDE8C04FFFF708BE2DE9F04781461646B6
:101A50008AB0354878440DC88DE80D003248784486
:101A6000801C03AC0DC884E80D0041F69B3008448F
:101A7000372190FBF1F290FBF1F5A5F1800501FB18
:101A800012041B3C02D56442012000E00020DFF874
:101A900098A080460027FA44AAF1BE0A0EE0E007AB
:101AA0000AD03246684607EB470101230AEB810161
:101AB00000F0C8FD8DE8070064107F1C002CEED1FB
:101AC000194F7F44AE3F19E0E80715D007EB04102B
:101AD0000DF1180A90E80E008AE80E00C068F04286
:101AE00001D1981908903246012306A903A800F0F5
:101AF000A9FD03AB83E807006D10641C002DE3D142
:101B00004FF0010332466946B8F1000F03A802D036
:101B100000F06EFD01E000F095FDC9E90001C9F893
:101B200008200AB0BDE8F0871C4C000010B5044640
:101B3000AFF300802046BDE81040FEF7C6BB0000B2
:101B40004FF0013C50F8042B51F8043B9A4221D14C
:101B5000A2EB0C03934313EACC1317D150F8042BD8
:101B600051F8043B9A4215D1A2EB0C03934313EABC
:101B7000CC130BD150F8042B51F8043B9A4209D1F5
:101B8000A2EB0C03934313EACC13DBD04FF000001D
:101B9000704700BFD01A01BAB1FA81F101F0180103
:101BA00022FA01F0CB40C1F12001DBB2C0B2C01A71
:101BB0002CFA01F3D11A914311EAC311E6D170470F
:101BC00001491820ABBEFEE7260002002DE9FF4FB9
:101BD0001F464FF03C0987B04FF00042DDE914107A
:101BE00001F10108DDF858A002EA405003900020FE
:101BF00005908346054604460490B969461E089838
:101C00008847AAF1010A0290BAF1000F3BDD029861
:101C10002E2815D0102100F01EFA00282EDB4FF0E0
:101C2000010B0599014317D0B9F1000F0BDB4A46B0
:101C3000C11700F0FDF905430C43A9F1040905E0C3
:101C4000012004900BE008B145F00105012005904A
:101C5000049820B9361D02E0049800B1361FB96916
:101C6000089808F101088847BBF1000FAAF1010AA2
:101C70000290C9D00999C1F80080C5E70298702880
:101C800008D0502806D0F96908988847BBF1000FA2
:101C900014D04FE0002002900120BBF1000F04900F
:101CA00009D0B969089808F101088847AAF1010923
:101CB000B9F1000F07DCF969089888476FF0010057
:101CC0000BB000F013B92B2804D02D280CD14FF005
:101CD000FF300490B969089808F101088847A9F114
:101CE0000109B9F1000FE6DD411CE4D00A2100F042
:101CF000B2F90028DFDB029908F1010801EB81014C
:101D000000EB41000290B969089888470A2100F069
:101D1000A2F9099AA9F10109B9F1000FC2F80080EE
:101D200001DD0028E7DAF9690898884704990298E4
:101D300000FB016655EA040004D004F040410900AC
:101D400002D006E0039898E0A40044EA9574AD0040
:101D5000B61E04F00041080002D16D196441761EE0
:101D6000159810F0240F03D04FF00B095C4803E0E6
:101D70004FF028096FF07D008246564507DAAAEB3E
:101D800006018944B9F1410F01DD4FF041090120FD
:101D90000021A9F1010200F04BF9024628400B4650
:101DA0002140084301D0012100E00021501E029192
:101DB00043F1FF3128402140084301D0012000E0D9
:101DC00000200299834651EA0B014FD000210846BA
:101DD0004FF00000039900F4400039B100EB80009F
:101DE0004FF4400100EBD07001EA6000801501283B
:101DF00002DD4FF0FF3000E013D0401C36D00298D7
:101E000060B3BBF1000F0CD14A460120002100F065
:101E10000FF928402140084301D0012000E00020B4
:101E2000E0B101204A46002100F002F903464019C2
:101E30000A4661412D1A8C4111D3B9F1400F09DDD9
:101E4000159810F0240F02D0AAF1340603E0AAF18D
:101E5000170600E0761C00254FF0004406E05B1EEC
:101E600042F1FF3220EA030521EA0204CAF101002F
:101E7000B04206DA1B490398084301900020009005
:101E80000EE0039AC4F3D321E80A0A43164940EA54
:101E900044500A433146CDE90002684603F051FC44
:101EA000159810F0240F0BD01598C00715D138687D
:101EB000DDE90012031D3B600068C0E900120CE080
:101EC00002A8694603F034FC1598C00705D13868AC
:101ED000029A011D3960006802604046F0E6000089
:101EE00002FCFFFF0000F07F0000F03F30BCBDE8C7
:101EF000C08F00002DE9FF4F92461D4685B04FF080
:101F00000041DDE9124BDDE914727F1E01EA4B50FE
:101F1000414940F0FF4940EA0108002122F0200039
:101F20004928049102D04E2828D04CE03BA001263D
:101F300007C88DE80700A9690698641C88477F1EBA
:101F4000014606D41DF8060018B121F02001814297
:101F50000BD0E96906988847032E34D0082E32D07A
:101F60006FF0010009B000F05FB8761C032E01D0BD
:101F7000082EE0D1601CCAF80000DCE7A9690698C9
:101F8000641C88477F1E2AD420F02000412826D1D7
:101F9000A9690698641C88477F1E20D420F0200081
:101FA0004E281CD1A9690698641C88477F1E48F4F6
:101FB000002849F48009CAF8004001D4282806D036
:101FC000E969069888475FEACB7012D022E0A969D8
:101FD0000698641C88477F1E01D4002803DAE9694B
:101FE00006988847BCE72928F1D1641CCAF800404C
:101FF000E9E71BF0240F07D028680499031D2B6024
:102000000068C0E9001805E02868021D2A60006821
:10201000C0F800902046A5E70000F07F494E4649F1
:102020004E4954590000000030BCBDE8C08F7047D5
:10203000B2F120030AD5C2F1200301FA02F120FA1D
:1020400003F300FA02F041EA0301704700FA03F1DA
:102050004FF0000070473A2800D2303820F02002BC
:10206000412A01D3A2F13700884201D34FF0FF305B
:1020700070475FEA400C08BF91F0000F4FEA8C23D5
:102080004FEAC12243EA51514FEA1C5018BF00F5F4
:10209000F0404FEA300018BF41F000415FEA6C5C4D
:1020A00000F02980BCF1FF3F08BF40F0804070473E
:1020B000130C06BF12044FF0100C4FF0000C130E5F
:1020C00004BF12020CF1080C130F04BF12010CF133
:1020D000040C930F04BF92000CF1020CD30F04BF49
:1020E00052000CF1010C11464FF00002A0F11F004C
:1020F000A0EB0C00704711F0004F08BF704731F0A3
:1021000000413FF4D5AF0B0C06BF09044FF0100C93
:102110004FF0000C0B0E04BF09020CF1080C0B0F62
:1021200004BF09010CF1040C8B0F04BF89000CF1F2
:10213000020CCB0F04BF49000CF1010CCCF12003C1
:10214000A0EB0C0022FA03F302FA0CF241EA0301BD
:1021500000F10100704720F07F4C80EA030023F07B
:102160007F47ACEB070303F57C5300F0004003F11D
:10217000FF032DE980494FEA154B09B44FEA144398
:1021800025EA0B4E24EA03480FF2042606EB132738
:1021900049083E785FEA320203FB0667C7F500078D
:1021A00007FB06F64FEA54374FEAD64606F1020619
:1021B00007FB066CCCF1005C4FEA1C472CEA074C8D
:1021C00007FB06F40CFB06F504EB15464FEA9616E2
:1021D00034BF00204FF000404FEAD13706FB07FC28
:1021E0004FEA1C4C0CFB0BF7D21B03FB0CF761EB0B
:1021F00007010CFB0EF7B0EB074072EB17420CFB2C
:1022000008F734BFA2EB0742B2EB074261EB17417C
:102210004FEA0C444FEA910706FB07FC4FEA1C4CBF
:102220000CFB0BF7B0EBC74072EB573203FB0CF71C
:1022300034BFA2EBC742B2EBC74261EB57310CFB94
:102240000EF7B0EBC70072EB57720CFB08F734BF08
:10225000A2EBC702B2EBC70261EB5771039F4FEAD3
:10226000816141EA921104EBCC044FEAD1374FEA85
:10227000826206FB07FC42EA90124FEA80604FEA56
:102280001C4C0CFB0BF7D21B03FB0CF761EB07019B
:102290000CFB0EF7B0EB074072EB17420CFB08F794
:1022A00034BFA2EB0742B2EB074261EB17414FEAA2
:1022B0008C554FEA910704EB9C2406FB07FC4FEA80
:1022C0001C4C0CFB0BF7B0EBC74072EB573203FB17
:1022D0000CF734BFA2EBC742B2EBC74261EB5731F8
:1022E0000CFB0EF7B0EBC70072EB57720CFB08F754
:1022F00034BFA2EBC702B2EBC70261EB577115EB1B
:102300004C254FEA816141EA92114FEA82624FEA1D
:10231000D13742EA901206FB07FC44F100044FEA71
:1023200080604FEA1C4C0CFB0BF7D21B03FB0CF735
:1023300061EB07010CFB0EF7B0EB074072EB1742A5
:102340000CFB08F734BFA2EB0742B2EB074261EB8C
:10235000174115EB1C154FEA813141EA92414FEAD2
:10236000823242EA90424FEA80304FEA0C7644F1E2
:10237000000448EA03434EEA0B484FF0000EB2EB6C
:10238000080C71EB030724BF624639464EEB0E0E74
:102390004FF0000B0018524149414BEB0B0BB2EBD5
:1023A000080C71EB03077BF1000B24BF6246394632
:1023B0004EEB0E0E4FF0000B0018524149414BEB13
:1023C0000B0BB2EB080C71EB03077BF1000B24BF86
:1023D000624639464EEB0E0E51EA020718BF46F030
:1023E000010616EB0E7655F1000254F1000103D5FB
:1023F000BDE88901BDE80088BDE88901BDE8004865
:10240000B619524141EB0101A3F1010370478080ED
:102410007F7E7D7C7B7A797877767675747372713E
:1024200071706F6E6E6D6C6C6B6A6A6968686766F6
:1024300066656464636362616160605F5F5E5E5D88
:102440005D5C5C5B5B5A5A595958585757565655FC
:1024500055555454535352525251515050504F4F5E
:102460004F4E4E4D4D4D4C4C4C4B4B4B4A4A4A49AE
:1024700049494848484747474746464645454544F1
:1024800044444443434343424242424141410000A9
:1024900046EA0646A3F570534FEA164646EA425608
:1024A0004FEAD22242EA415210B54FEAD121A3F1BC
:1024B000010300F02FF820F0004000F1020C00F0C2
:1024C000004701EB00501146BCF5006F40EA0700E1
:1024D00000D210BDBAF1000F0AD01CB503B44FF002
:1024E00004004FF004014FF000000FBCBDE81040A5
:1024F0004FF00001BBF1010FB9BF04484FF0FF31AD
:102500000348002140EA070010BD00BFFFFFEF7F36
:102510000000F07F002B9C4630D477002BD01CB5F8
:102520004FEA370703B44FF010004FF01001BAF133
:10253000000F06D0BCF1000FDCBF40F0080040F0F7
:1025400008014FF000000FBCBDE810400BF1010B7B
:10255000BBF1010F08BF5FEA170722BF12F10102AA
:1025600011F101014FF0004143F1000300F0004080
:1025700043EA00007047F9D35708D0E746EA064619
:1025800013F1400F4FEA16461FDD13F1200FDFBF96
:1025900016430A46002120335B42BED0C3F1200718
:1025A00046EA064602FA07F74FEA164646EA0706E3
:1025B000C3F1200722FA03F201FA07F721FA03F127
:1025C0004FF0000342EA0702A7E746EA020646EA9E
:1025D00006464FEA164646EA0106BCBF46EA0646EC
:1025E000360C4FF000034FF000024FF0000194E76B
:1025F0002DE9804C9A46934670B491E8380007C89C
:1026000031EA400C48BF34EA430C03D5FFF7A3FD81
:10261000FFF780FFF0BCBDE8008C2DE9804C9A46A6
:10262000934670B491E8380007C831EA400C48BFBF
:1026300034EA430C03D5FFF78EFDFFF729FFF0BC0A
:10264000BDE8008C2DE9804C9A46934670B491E821
:10265000380007C810F0804F08BF13F0804F03D137
:1026600000F01AF8FFF756FFF0BCBDE8008C2DE92A
:10267000804C9A46934670B491E8380007C810F031
:10268000804F08BF13F0804F03D100F005F8FFF72B
:10269000FFFEF0BCBDE8008C20F07F4780EA03001D
:1026A00023F07F4C07EB0C03A3F57C5300F00040B4
:1026B000A3F1FE0392F0000F00F0B38095F0000F3D
:1026C00000F077802DE901494FEA11404FEA1446A6
:1026D00021EA004800FB06FC24EA064708FB06F650
:1026E00007FB08F800FB07F718EB06484CEB164C05
:1026F0004FEA124B18EB07484FEA15464CEB1740D0
:1027000022EA0B4E0BFB06FC25EA06470EFB06F6FB
:1027100007FB0EFE0BFB07F71EEB064E4CEB164CB1
:102720004FF000061EEB074E4CEB174B18EB0B0857
:1027300040F1000018EB0E0B58EB000840F10000D0
:102740008F1A4FF000013CBFC943661B14BFB5EBA5
:10275000040C00213CBFC943F61B4FEA17444EEA64
:102760008E0E27EA04454FEA1C4704FB07622CEA59
:10277000074C05FB07F70CFB05F604FB0CFC16EBFE
:10278000074642EB174216EB0C4642EB1C421BEB92
:10279000060658EB0202414146EA9E0601D5BDE815
:1027A0000189B619524141EB0101A3F10103BDE8D2
:1027B00001894FEA14454FEA114724EA054621EA08
:1027C000074C05FB07F406FB07F70CFB06F105FBBE
:1027D0000CFC11EB074144EB17444FEA124711EB95
:1027E0000C4144EB1C4422EA074C05FB07F206FBB4
:1027F00007F70CFB06F605FB0CFC16EB074642EB55
:10280000174216EB0C4642EB1C456A1854F10001C6
:1028100048BF7047B619524141EB0101A3F10103D2
:10282000704795F0000F37D04FEA11424FEA144736
:1028300021EA024624EA074C02FB07F106FB07F7F0
:102840000CFB06F402FB0CFC14EB074441EB1741B4
:102850004FEA154714EB0C4441EB1C4125EA074CA9
:1028600002FB07F506FB07F70CFB06F602FB0CFC68
:1028700016EB074645EB174516EB0C4645EB1C429D
:10288000121951F1000148BF7047B619524141EB8E
:102890000101A3F1010370474FEA14454FEA1147C4
:1028A00024EA054621EA074C05FB07F106FB07F77A
:1028B0000CFB06F24FF0000605FB0CFC12EB074286
:1028C00041EB174112EB0C4251EB1C4148BF7047E2
:1028D000921841EB0101A3F101037047FEE70000EC
:1028E0002DE9F047414F404DDFF8089139883D48C8
:1028F0003F4A45F8210049F82120491C39803F4CC6
:1029000042F20E71C0E9021464240461002484615F
:10291000C4614F23DFF8E08004624462C0E90038FC
:102920000926067546758675C675C0F88440C0F8D8
:102930008840C0F88C40DFF8C8C0C0F880C0C0F83C
:102940009040106883621068C162D1600121104616
:1029500001F0E0F939882B482C4B45F821002A4D2D
:1029600049F82150491C39803121C0E902138461A2
:10297000C461046249F64043446227220361C0E90E
:1029800000280675012343758675C675C0F880401A
:10299000C0F88440C0F88840C0F88C40C0F890402F
:1029A000286882622868C162E96029681820886303
:1029B0000121284601F0AEF902F044FD1549144802
:1029C00008600B4801F07AF9094801F077F900BF77
:1029D00095F83D000228FBD0BDE8F04704210A48E5
:1029E00001F06EBBDC020020280000202400002043
:1029F000A80000203000002000B4C40440420F00B2
:102A00005949000848020020F400002080841E007C
:102A1000452C00080802002070B56D4C2DED0E8B82
:102A20009FED6CBB9FED6DDB9FED6EEB6F4E94EDFC
:102A3000040BA4F110059FED6E1B51EC100B53EC31
:102A4000112B03F0CBF97CD184ED04DB94ED081B52
:102A500094ED060B53EC112B51EC100B03F0F2FB31
:102A600041EC1A0B9FED640B53EC102B03F0B6FAFC
:102A70009FED631B53EC112B03F0B0FA41EC1C0BE0
:102A80009FED610B51EC1A0B53EC102B03F0A6FADF
:102A900094ED000B41EC180B53EC102B51EC1C0B7C
:102AA00003F0D0FB53EC182B02F084FF94ED021BD3
:102AB00053EC112B02F07EFF41EC190B53EC1B2B56
:102AC00003F08AFB04D2B0EE4B8AF0EE6B8A0FE083
:102AD00053EC1D2B51EC190B03F044FA04D2B0EE69
:102AE0004D8AF0EE6D8A03E0B0EE498AF0EE698A15
:102AF00053EC1E2B51EC180B03F070FA53EC1B2B0C
:102B000003F014F841EC1B0B85ED00BB84ED00CB0A
:102B10009FED3F0B51EC1A0B53EC102B03F05EFAB8
:102B200041EC1A0B53EC192B51EC180B03F08AFBF8
:102B30009FED391B53EC112B03F050FA53EC1A2B79
:102B400000E037E002F036FF9FED351B53EC112B10
:102B500003F044FA94ED021B53EC112B02F02AFF10
:102B6000C4E90201F06903F0D2F953EC1B2B03F026
:102B700035F91FD095ED008B51EC180B03F06AF975
:102B8000F06153EC1D2B51EC180B03F025FB11D811
:102B900025480468E06A03F0D1F995ED001B53EC79
:102BA000112B03F01BFA53EC1E2B02F0BFFF03F0B6
:102BB00081F9A0631D4908681D4A80B220F04200D7
:102BC00040F002001080086000F034B870BD0000D2
:102BD000D80100203D0AD7A370BD204000000000AE
:102BE00000000000000000000000594048020020E2
:102BF000000000000000F03F565CC1DB28574D3F4D
:102C00002410AFEB17ECB63F80B74082E2C7883F95
:102C1000F6285C8FC2F5D83F92D37CAD9E1D404014
:102C20007B14AE47E17A843FF4000020140400488E
:102C30001C000020BDEC088BBDEC06CBFFF7C6BF27
:102C40007047000010B5074C9FED071B94ED0A0B71
:102C500053EC112B51EC100B02F0ACFEC4E90A014D
:102C600010BD0000D8010020000000000000F03F6F
:102C7000012000F0A3B872B6FEE710B590F8251059
:102C80000022022905D00421C16380F824200120FC
:102C900010BD01680B6823F00E030B6001680B6820
:102CA00023F001030B6090F84410046C01F01C0346
:102CB000012101FA03F3636080F8251080F82420D5
:102CC000104610BD10B590F825100024022903D03D
:102CD0000421C16301241AE001680A6822F00E028F
:102CE0000A6001680A6822F001020A6090F8441044
:102CF000036C01F01C02012101FA02F25A6080F813
:102D00002510002180F82410816B01B188472046EE
:102D100010BD00000021B0F5807F37D010DC1028F6
:102D20002CD006DC022823D0042823D008283CD14C
:102D300022E0202824D0402824D0802835D123E048
:102D4000B0F5805F2AD009DCB0F5007F20D0B0F567
:102D5000806F1FD0B0F5006F27D11DE0B0F5005F88
:102D60001ED0B0F5804F1DD0B0F5004F1DD11BE037
:102D700001211AE0022118E0032116E0042114E0E9
:102D8000052112E0062110E007210EE008210CE0E9
:102D900009210AE00A2108E00B2106E00C2104E0E9
:102DA0000D2102E00E2100E00F21034850F8210020
:102DB000002800D00047704708020020044910B5E1
:102DC0000A68024202D00860FFF7A4FF10BD0000AD
:102DD000140401402DE9FC4FDFF884A100230125F4
:102DE0000AF1040B03244FF00F0C0BF1040EB0E0BA
:102DF00005FA03F73A406ED04E68012E05D0022E38
:102E000003D0112E01D0122E17D1D0F808905E00F9
:102E100004FA06F829EA08090096D1F80C8008FAA5
:102E200006F848EA0908C0F808804668BE430F79EA
:102E3000C7F300179F4037434760C6684FEA43080F
:102E400004FA08F7BE4301978F6807FA08F737437B
:102E5000C7604E68022E01D0122E10D1DE0800EBA2
:102E600086060096366A5F074FEAD7690CFA09F7BB
:102E7000BE430F6907FA09F73743009E37620668B9
:102E8000019FBE430F7907F0030707FA08F737439E
:102E900007604E68F6005BD5324E376E47F001078B
:102EA0003766366E23F0030706F0010600962E4EB5
:102EB0003E44B146B6689F074FEA17780CFA08F708
:102EC000BE43B0F1904F04D0284FB84204D101273F
:102ED0000DE000270BE03BE0254FB84201D102276F
:102EE00005E0244FB84201D1032700E0072707FA85
:102EF00008F73743C9F80870DAF800605746D1F888
:102F0000048096435FEAC83800D516433E60DBF87C
:102F100000605F46D1F8048096435FEA883800D5A8
:102F200016433E60DEF800607746D1F80480964391
:102F30005FEAC82800D516433E60094F0C373E684B
:102F4000D1F8048096435FEA882800D516433E6096
:102F50005B1C0E683246DE407FF44AAF00F00CB8CE
:102F6000000401400010024000000140000400483D
:102F700000080048000C00481CBCBDE8E08F426916
:102F800021EA02030A4043EA0241816170470AB123
:102F90008161704781627047014880687047000016
:102FA0000C0000200248816802781144816070475B
:102FB0000C00002010B50024032000F071F80F2051
:102FC00000F008F808B1012401E000F025F82046DF
:102FD00010BD000070B50E4E05460024307898B143
:102FE0004FF47A71B1FBF0F00A490968B1FBF0F0D7
:102FF00000F084FD40B9102D06D200222946501E53
:1030000000F02EF8756000E00124204670BD00003D
:103010000C00002018000020094808B5016E41F09E
:1030200001010166016E01F001010091816D41F025
:1030300080518165806D00F08050009008BD0000D7
:1030400000100240002809DB00F01F02012191401E
:103050004009800000F1E020C0F800117047000036
:10306000F0B40E4B1B680C46C3F30223C3F10705F3
:10307000042D00D90425191D072901D2002300E0E1
:10308000DB1E012606FA05F1491E214099409E40AB
:10309000761E16403143F0BC02F019BA0CED00E088
:1030A000064900F0070208684FF6FF03184040EA9F
:1030B0000220034A10430860704700000CED00E056
:1030C0000000FA051649B0F5007F0868C0F34120FA
:1030D00009D0022805D0086820F4C06040F4806060
:1030E0000860002070470128FBD0086820F4C06009
:1030F00040F4007008600B483222006850430A4ACE
:10310000B0FBF2F0401C00E0401E4A69520501D5B8
:103110000028F9D148694005E3D503207047000035
:10312000007000401800002040420F000248006874
:1031300000F4C06070470000007000402DE9F843C3
:10314000044600680026774D80035ED5A86D0027F1
:10315000C00008D4A86D40F08050A865A86D012774
:1031600000F080500090DFF8C091D9F8001041F4D1
:103170008071C9F80010FFF70FFF804606E000BF1E
:10318000FFF70AFFA0EB080002282BD8D9F80000AF
:10319000C005F5D5D5F8900010F4407014D0216B1F
:1031A000814211D0D5F89000D5F8901020F44070ED
:1031B00041F48031C5F89010D5F8901021F4803199
:1031C000C5F89010C5F89000C00711D0FFF7E4FED5
:1031D000804641F2883907E0FFF7DEFEA0EB0801E8
:1031E000494501D903260BE0D5F890008007F3D5B7
:1031F000D5F89000216B20F440700843C5F890008A
:103200001FB1A86D20F08050A8652078C00707D0B6
:10321000D5F88800616820F003000843C5F88800ED
:103220002078800707D5D5F88800A16820F00C0029
:103230000843C5F888002078400707D5D5F88800EE
:10324000E16820F030000843C5F888002078800647
:1032500007D5D5F88800216920F440600843C5F8F7
:1032600088002088800507D5D5F88800216A20F4D9
:1032700040200843C5F888002088400507D5D5F8C8
:103280008800616A20F440100843C5F8880020785F
:10329000400607D5D5F88800616920F440500843FE
:1032A000C5F888002078000607D5D5F88800A16900
:1032B00020F440400843C5F888002088C00507D5A1
:1032C000D5F88800E16920F440300843C5F888004B
:1032D00020884FF0006180040ED5D5F88800A26ADE
:1032E00020F040601043C5F88800A06A884203D1EE
:1032F000E86840F48010E860206840030ED5D5F8F7
:103300008800E26A20F040601043C5F88800E06A57
:10331000884203D1E86840F48010E8603046BDE898
:10332000F883000000100240007000402DE9F047D3
:103330000F46050058D0404E306800F00700B842F4
:1033400009D2306820F0070038433060306800F060
:103350000700B84248D12878384CC0072CD068689C
:10336000032811D0022812D0216898B149050029FC
:103370003ADAA16821F003010143A160FFF70CFED6
:10338000804641F2883910E021688901EFE7216821
:103390008903ECE78907EAE7FFF7FEFDA0EB0801E8
:1033A000494502D90320BDE8F087A068696800F0AC
:1033B0000C00B0EB810FEFD12878800705D5A0680D
:1033C000A96820F0F0000843A060306800F0070012
:1033D000B8420BD9306820F00700384330603068BD
:1033E00000F00700B84201D00120DCE72878400750
:1033F00005D5A068E96820F4E0600843A06028785B
:10340000000706D5A068296920F4605040EAC10091
:10341000A06000F03FF8A168094AC1F30311515CB4
:1034200001F01F01C8400749086007480068BDE86F
:10343000F047FFF7CFBD000000200240001002401F
:1034400038650008180000201000002005480649D3
:1034500000688968054AC1F30221515C01F01F012F
:10346000C84070471800002000100240786500082E
:103470000548064900688968054AC1F3C221515CC4
:1034800001F01F01C84070471800002000100240E2
:103490007865000870B52549002318468A68CC680D
:1034A00012F00C0204F00306214C4FEA640509D027
:1034B0000C2A05D0042A32D0082A00D1284670BD33
:1034C000012E10D10B681B0704D4D1F89430C3F33C
:1034D000032302E00B68C3F30313164E56F82330A0
:1034E000DAB10C2AEBD1C86800F00300022818D02A
:1034F000032818D01846CA68CB68C2F30212C3F377
:1035000006234343521CB3FBF2F2C868C0F3416088
:10351000401C4000B2FBF0F070BD184670BD204664
:1035200070BD2046E7E72846E5E7000000100240AE
:103530000024F400486500082DE9F84304006FD02A
:10354000FE4DA86800F00C06E86800F0030720783C
:10355000C00664D576B10C2E01D1012F0AD0E069E6
:10356000002828687AD040F001002860FFF714FD99
:1035700080465DE02868800702D5E0690028DED03B
:10358000616A2868000703D5286800F0F00004E0AD
:10359000D5F89400F02202EA1010814216D90846AC
:1035A00001F01EF900283BD1286840F0080028608F
:1035B0002868616A20F0F000084328606868216A82
:1035C00020F47F4040EA0120686016E0286840F05F
:1035D000080028602868616A20F0F000084328602D
:1035E0006868216A20F47F4040EA0120686026B9BB
:1035F000606A01F0F5F80028D5D1FFF74BFFA96804
:10360000CF4AC1F30311515C01F01F01C840CD49FD
:103610000860CD480068FFF7DDFC00287ED12EE071
:10362000C4E000BFFFF7B8FCA0EB0800022876D882
:1036300028688007F6D5286840F0080028602868C8
:10364000616A20F0F000084328606868216A20F46D
:103650007F4040EA0120686011E0FFE720F00100B0
:103660002860FFF799FC804606E000BFFFF794FC56
:10367000A0EB08000228DAD828688007F6D4207862
:10368000C00740D0082E18D00C2E01D1032F14D023
:103690006068B0F5803F17D0B0F5A02F286817D02C
:1036A00020F480302860286820F48020286060683A
:1036B000E0B1FFF771FC804614E02868800322D552
:1036C0006068002872D01EE0286840F48030EDE782
:1036D00040F480202860F7E7FFF75EFCA0EB0800CD
:1036E0006428A4D828688003F6D50CE0FFF754FCC2
:1036F000804605E0FFF750FCA0EB0800642896D850
:1037000028688003F6D4207880073BD5042E11D09A
:103710000C2E01D1022F0DD0E06801E0E2E117E1AB
:10372000002828681ED040F480702860FFF734FC21
:1037300007460CE0286840050CD5E0680028C1D099
:1037400008E000BFFFF728FCC01B022893D82868B8
:103750004005F7D56868217C20F0FE4040EA016012
:1037600068600FE020F480702860FFF715FC0746C2
:1037700005E000BFFFF710FCC01B0228B1D8286885
:103780004005F7D42078000753D560690028D5F8A4
:1037900094003DD0A16900F01002914223D081072E
:1037A0004FEAC07003D500288CD001E071E190B1E0
:1037B000D5F8940020F00100C5F89400FFF7ECFB69
:1037C000074604E0FFF7E8FBC01B112889D8D5F8AD
:1037D00094008007F6D4D5F89400A16920F0100079
:1037E0000843C5F89400D5F8940040F00100C5F8EE
:1037F0009400FFF7D1FB074605E000BFFFF7CCFBC5
:10380000C01B1128A2D8D5F894008007F6D510E087
:1038100020F00100C5F89400FFF7BEFB074604E066
:10382000FFF7BAFBC01B112890D8D5F89400800789
:10383000F6D42078400778D5A86D0027C00008D4BA
:10384000A86D40F08050A865A86D012700F0805059
:1038500000903E480168C90512D40168814641F4D0
:1038600080710160FFF798FB804605E0FFF794FB4D
:10387000A0EB080002286BD8D9F80000C005F5D5E8
:10388000A068C10720D0D5F8901000F0800021F08A
:1038900080010143C5F89010207A400705D5D5F87E
:1038A000900040F00400C5F89000D5F8900040F07A
:1038B000010000BFC5F89000A06841F28839D0B17E
:1038C000FFF76AFB804611E0D5F8900020F0010078
:1038D000C5F89000D5F8900020F00400EAE700BF9A
:1038E000FFF75AFBA0EB0801494531D8D5F8900005
:1038F0008007F5D514E0FFF74FFB804606E000BFD8
:10390000FFF74AFBA0EB0801494521D8D5F8900004
:103910008007F5D4D5F8900020F08000C5F890001D
:103920001FB1A86D20F08050A8652078800634D59E
:10393000A06A0028D5F898001ED00AE000100240C6
:1039400038650008180000201000002000700040BA
:103950008CE040F00100C5F89800FFF71DFB07461A
:1039600005E000BFFFF718FBC01B02287ED8D5F882
:1039700098008007F6D510E020F00100C5F8980007
:10398000FFF70AFB074604E0FFF706FBC01B02280F
:103990006CD8D5F898008007F6D4E06AE8B302281E
:1039A00011D00C2E75D0286820F080702860E8684F
:1039B00020F00300E860E86820F08870E860FFF716
:1039C000EBFA044690E0E868226B00F003019142B4
:1039D0001FD1616B00F0700209011039914218D1BA
:1039E000A26B00F4FE41B1EB022F12D1A18F00F4C3
:1039F000C00249084905A1F50011914209D194F886
:103A0000401000F0C06049084906A1F100718142F0
:103A100049D00C2E6DD0286800E05BE020F080706B
:103A20002860FFF7B9FA064605E000BFFFF7B4FAD1
:103A3000801B022855D828688001F7D4D4E90C01EE
:103A40006FF00F0202EB01110843A18F52044908E5
:103A500002EB4151A26B41EA0221084394F8401065
:103A60004FF07E42490802EB416100E039E0084333
:103A7000E968214A11400843E860286840F08070F6
:103A80002860E86840F08070E860FFF785FA044637
:103A900005E02EE0FFF780FA001B022821D82868F5
:103AA0008001F7D523E02868800120D4286840F001
:103AB00080702860E86840F08070E860FFF76CFA7A
:103AC000044604E0FFF768FA001B022809D82868BA
:103AD0008001F7D50BE000BFFFF75EFA001B02285C
:103AE00002D90320BDE8F88328688001F4D40020BF
:103AF000F8E70120F6E700008C809FF910B5401E22
:103B0000B0F1807F01D3012010BD4FF0E02460614F
:103B10000F21601701F0DBFC0020A061072020616D
:103B2000002010BD704770477047000030B590F816
:103B30003C20012A37D0012280F83C20CA688C68DA
:103B400022F4407222434C6822F4806222430C68C3
:103B500022F4006222430C6922F4805222434C6911
:103B600022F4005222438C6A22F4804222430C8BBE
:103B700022F4702242EA04420C4D04680023AC4255
:103B80000CD18D8C22F4700242EA0552CD6922F0EC
:103B900080722A43096A22F000720A43626480F844
:103BA0003C30002030BD022030BD0000002C014020
:103BB000F0B590F83C20012A29D0012480F83C403F
:103BC000022280F83D2003685A689D68114EB34276
:103BD00003D122F470074A683A4322F070070A685A
:103BE0003A435A600268B24205D0B2F1804F02D027
:103BF000094B9A4204D1896825F0800319439160EA
:103C000080F83D40002180F83C100846F0BD0220BD
:103C1000F0BD0000002C01400040014010B5040040
:103C200003D094F83D0010B107E0012010BD002042
:103C300084F83C00204600F023F8022084F83D0080
:103C4000211D206800F000FF012084F8480084F85E
:103C50003E0084F83F0084F8400084F8410084F876
:103C6000420084F8430084F8440084F8450084F856
:103C7000460084F8470084F83D00002010BD000095
:103C800008B500680B49884212D10B48816D41F09C
:103C900010018165806D002200F010000090114637
:103CA0003620FFF7DDF9BDE808403620FFF7CAB936
:103CB00008BD0000001000400010024090F83D10C8
:103CC000012901D001207047022180F83D100168D0
:103CD000CA6842F00102CA6000680B49884205D0F8
:103CE000B0F1804F02D00949884207D18168084A63
:103CF0001140062906D0B1F5803F03D0016841F09C
:103D00000101016000207047002C0140004001408B
:103D10000700010090F83C20012A0CD0012200F895
:103D20003C2F0223437050F83C3C59614270002103
:103D300001700846704702207047704770B504460E
:103D4000006801694FF00005C943890715D4C168AF
:103D5000C943890711D4E91E016101202077206839
:103D600080698007204602D0FFF7E7FF04E000F0FB
:103D7000CFF8204600F0A2F9257720680169C943F1
:103D8000490717D4C168C943490713D46FF0040128
:103D90000161022020772068806910F4407F20466E
:103DA00002D0FFF7CAFF04E000F0B2F8204600F0AE
:103DB00085F9257720680169C943090716D4C168C8
:103DC000C943090712D46FF008010161042020776C
:103DD0002068C0698007204602D0FFF7AEFF04E0EC
:103DE00000F096F8204600F069F92577206801690F
:103DF000C943C90617D4C168C943C90613D46FF0B3
:103E000010010161082020772068C06910F4407F0C
:103E1000204602D0FFF791FF04E000F079F8204639
:103E200000F04CF9257720680169C943C90708D11A
:103E3000C168C943C90704D1891E0161204600F049
:103E4000A7F920680169C943090609D4C168C943B3
:103E5000090605D46FF0800101612046FFF763FE7B
:103E600020680169C943C90509D4C168C943090665
:103E700005D46FF4807101612046FFF753FE20687E
:103E80000169C943490609D4C168C943490605D433
:103E90006FF040010161204600F07CF92068016963
:103EA000C94389060BD4C168C943890607D46FF09A
:103EB000200101612046BDE87040FFF735BE70BDAE
:103EC00010B586B0044614216846FCF7D5FA0E49B1
:103ED0002068884216D10D48C16C41F00101C164CF
:103EE000C06C694600F00100059008200090022097
:103EF00001900020029003900E2004904FF090401B
:103F0000FEF768FF06B010BD0040014000100240FF
:103F1000704770B5044690F83C000D4601280BD060
:103F2000012084F83C000C2A45D007DC5AB1042A51
:103F30001BD0082A78D12CE0022070BD102A4ED068
:103F4000142A71D15DE0206800F0C2FD206881690B
:103F500041F0080181612068816921F004018161DB
:103F6000206881692A69114311E0206800F0ECFDA6
:103F70002068816941F4006181612068816921F4D0
:103F800080618161206881692A6941EA0221816139
:103F90004AE0206800F014FE2068C16941F0080181
:103FA000C1612068C16921F00401C1612068C16953
:103FB0002A69114311E0206800F03CFE2068C169C5
:103FC00041F40061C1612068C16921F48061C1616F
:103FD0002068C1692A6941EA0221C16124E02068A0
:103FE00000F058FE2068416D41F0080141652068ED
:103FF000416D21F0040141652068416D2A6911433A
:1040000011E0206800F074FE2068416D41F4006109
:1040100041652068416D21F4806141652068416DF2
:104020002A6941EA02214165002084F83C0070BD04
:1040300010B5040003D094F83D0010B107E0012052
:1040400010BD002084F83C00204600F023F8022038
:1040500084F83D00211D206800F0F6FC012084F862
:10406000480084F83E0084F83F0084F8400084F85B
:10407000410084F8420084F8430084F8440084F846
:10408000450084F8460084F8470084F83D0000208D
:1040900010BD000008B500680649884208D10648EE
:1040A000016E41F480310166006E00F480300090B2
:1040B00008BD0000004001400010024070470000B1
:1040C00010B50446022269B1042912D0082917D07C
:1040D0000C291CD0102921D094F84300012824D0A9
:1040E000012010BD94F83E000128F9D184F83E204B
:1040F0001DE094F83F000128F2D184F83F2016E03B
:1041000094F840000128EBD184F840200FE094F8A7
:1041100041000128E4D184F8412008E094F84200ED
:104120000128DDD184F8422001E084F843200122F7
:10413000206800F0BFFC12492068124A884204D06F
:10414000904202D0104B984203D1436C43F4004399
:1041500043642068884204D0B0F1804F01D090427F
:1041600007D18168094A1140062906D0B1F5803F80
:1041700003D0016841F001010160002010BD000082
:10418000002C0140004001400044014007000100B4
:1041900000F0DCBD70477047704770472DE9F04173
:1041A00002680446D0691168936840F60F052842FA
:1041B0004FF0000505D1860678D58E0676D5616E5E
:1041C000F3E0834F03F001060F4037437ED0C7076B
:1041D00009D0CF0507D501271762D4F8802042F017
:1041E0000102C4F8802082070AD5DA0708D02768C0
:1041F00002223A62D4F8802042F00402C4F88020FF
:1042000042070AD5DA0708D0236804221A62D4F8D4
:10421000802042F00202C4F8802002070CD501F091
:104220002002324308D0236808221A62D4F8802082
:1042300042F00802C4F8802002050BD54A0109D5D6
:1042400023684FF400621A62D4F8802042F0200202
:10425000C4F88020D4F88020002A2FD0800605D50D
:10426000880603D5616E09B120468847D4F88000DE
:1042700021688968490602D410F0280F20D0204612
:1042800000F053FE20688168490614D5816821F04A
:1042900040018160206F70B14E498163206FFEF74D
:1042A00011FD00280AD0206F816B01E00EE020464E
:1042B000BDE8F04108472046FFF76FFFBDE8F081F9
:1042C0002046FFF76AFFC4F88050F7E7276E2026E4
:1042D000012F59D1C70657D5CF0655D510201062EA
:1042E0002268906840062ED5216F08684068000457
:1042F000000CE3D0B4F858308342DFD9A4F85A0058
:1043000008680068800617D4106820F48070106078
:104310002068816821F0010181602068816821F0B6
:1043200040018160E66725662068016821F0100180
:104330000160206FFEF7A1FCB4F85800B4F85A10E1
:10434000401A81B21CE0B4F85800B4F85A10401A70
:1043500081B2B4F85A000028B0D00029AED010685D
:1043600020F4907010602068826822F00102826060
:10437000E667256665662068026822F01002026022
:104380002046FFF708FF99E7C70209D55B0207D56A
:104390004FF4801010622046BDE8F041FFF7FCBEEC
:1043A000030606D50B0604D5A16E00297FF47FAF66
:1043B00084E7400682D5480680D5106820F040008A
:1043C0001060A6672046A56600F00EF976E70000AB
:1043D00020010004174F000810B5040002D0A06FA0
:1043E00010B107E0012010BD002084F874002046C1
:1043F00000F026F82420A0672068016821F0010160
:104400000160204600F026FE0128ECD0606A10B161
:10441000204600F0EEFC2068416821F490414160A4
:104420002068816821F02A0181602068016841F0DC
:10443000010101602046BDE8104000F03EBD0000D3
:10444000F0B593B0044614216846FCF715F8342102
:1044500005A8FCF711F82049206888423AD10224C7
:10446000002605A807960594FEF768FE08B1FEF73A
:1044700002FC1A48816D41F400318165816D01F4BF
:1044800000311291C16C41F00101C164C06C03257F
:1044900000F00100129004208DE851000720CDE9C2
:1044A00003504FF0904769463846FEF793FC4FF4AF
:1044B0000040CDE90004CDE902656946049538461F
:1044C000FEF788FC002211462620FEF7C9FD2620B3
:1044D000FEF7B8FD13B0F0BD0044004000100240EC
:1044E00010B4C36F202B1BD1B9B1B2B190F87430A6
:1044F000012B15D0012380F8743000230366094C8A
:104500000368A34206D05C68240203D51C6844F00B
:1045100080641C6010BC00F09DBE012010BC704780
:104520000220FBE70080004010B5104C617878292C
:104530000CD00F4AA0781154401CA0700B490122E6
:10454000BDE81040491C0B48FFF7CABF08210A48C4
:10455000FEF715FD064801F047F8084880ED060B08
:10456000A1780348FBF766FF0020E6E70000002083
:10457000440000204001002000040048D801002031
:10458000836F202B29D1B9B1B2B190F87430012BCF
:1045900023D0012380F87430C164A0F85020A0F823
:1045A000522000218166C0F8801021228267826833
:1045B000B2F5805F02D003E001207047026952B17A
:1045C000074A826680F874100068016841F0800133
:1045D000016000207047034AF3E7022070470000A3
:1045E00025530008E55200080F4A0F49121D1268B2
:1045F0000968824211D1012081F820004A88486967
:1046000010444861CA68904201D38868486191F8B3
:10461000210018B1022081F82100704708884A88DB
:10462000801A0880704700003C000020FEE7000070
:1046300070B586B014216846FBF71EFF1A48C16C9E
:1046400041F00101C164C16C01F001010591C16C2F
:1046500041F00201C164C06C144E00F002000590EC
:1046600000224A213046FEF792FC01251048002422
:104670000095CDE9010469464FF09040FEF7AAFB92
:104680004A200090CDE90154694630460394FEF774
:10469000A1FB002211460620FEF7E2FC0620FEF7F1
:1046A000D1FC06B070BD00000010024000040048BC
:1046B0000000211010B596B00024129413941C2110
:1046C0000BA81494FBF7D8FE2C216846FBF7D4FE08
:1046D0001F481E4901602721C0E901143221C0E9A9
:1046E000031444618461FFF7A3FC08B1FEF7C3FA29
:1046F000129412A916481494FFF75AFA08B1FEF75B
:10470000BAFA6020CDE90B040D940E940F94109426
:1047100004220BA90E481194FFF7FBFB08B1FEF72A
:10472000AAFA00944FF40050CDE904400194029499
:104730000394694606480A94FFF7F8F908B1FEF7B2
:104740009AFA0348FFF7BCFB16B010BD00400140C9
:10475000F40000203EB500240F48009401940D4958
:10476000029401604F21C0E9011440F69F718461F9
:10477000C160FFF753FA08B1FEF77DFA009469466D
:1047800005480294FFF714FA002801D0FEF773FAE7
:104790003EBD000000100040A80000200D4810B5EC
:1047A0000B4901604FF4E1314160002181600C222E
:1047B000C160C0E904128161C16101624162FFF719
:1047C0000BFE002803D0BDE81040FEF754BA10BD20
:1047D0000044004040010020FEE7FEE77047000073
:1047E000F8B51C4D06460024A86DC00002D5FEF7A2
:1047F0009DFC0DE0A86D40F08050A865A86D00F00C
:1048000080500090FEF792FCA96D21F08051A965BF
:10481000B0F5007F04D0802E07D94FF003040AE0E2
:10482000802E08D9A02E01D804E001D1022402E094
:10483000702E00D101240848016821F007012143AE
:104840000160006800F00700A04201D00120F8BD1F
:104850000020F8BD00100240002002407047000018
:10486000401EB0F1807F01D3012070474FF0E0215E
:104870004861054AF02082F8140D00208861072065
:1048800008610020704700000FE000E00348016865
:1048900011B10168491E0160FEF784BB08000020C9
:1048A00010B596B044216846FBF7E6FD142111A827
:1048B000FBF7E2FD4FF40070FEF704FC08B172B69E
:1048C000FEE7002460211020CDE90841009001207E
:1048D00007900221CDE90B100D902820CDE90E01A3
:1048E00068461091FEF728FE08B172B6FEE70F2069
:1048F00011900320CDE912041494042111A81594F9
:10490000FEF714FD002801D072B6FEE716B010BD08
:104910000B48016841F4700101600A48016841F0E8
:1049200001010160002181600268074B1A400260AA
:104930008214C260026822F48022026081617047A2
:1049400088ED00E000100240FFFFF6EA0148FFF7A3
:10495000F5B90000A8000020F0B52D4D2DED028B1B
:1049600087B095ED0A0B9FED2B8B51EC100B53ECA0
:10497000182B01F033FB9FED291B53EC112B01F099
:10498000D5F89FED281B53EC112B01F027FB53ECBE
:10499000182B01F0CBF8C5E908019FED240B00208E
:1049A00085ED0A0B064669460E54401C0F28FBDBBA
:1049B000084600F01FFF1F4C1F4A04A9A0600020FA
:1049C000135C0B54401C0928FADB95ED080B684674
:1049D00053EC102BFBF718FD0204120CE28103D0FC
:1049E0001648A16800F0D0F9144F388818B1A68194
:1049F000384600F00DFD97F8200008B17888A081B6
:104A00009FED0F0B85ED040B07B0BDEC028BF0BDE5
:104A1000D80100200000000000004E403333333343
:104A20003333F33F182D4454FB211940000000009C
:104A300000000000C8010020846500087005002007
:104A4000000000000000F03F70B50268164B4FF008
:104A50008046984201D0B04203D122F070044A68E7
:104A60002243124C124D984205D0B04203D0A042CE
:104A700001D0A84203D122F44076CA6832434E697D
:104A800022F08002324302608A68C2620A6882624F
:104A9000984203D0A04201D0A84201D10969016324
:104AA0000121416170BD0000002C01400040014027
:104AB0000044014010B501F01F030121046A994030
:104AC0008C430462016A9A401143016210BD0000E8
:104AD000F0B5026A22F001020262056A4368826947
:104AE000154C25F0020522400C6822F00302144305
:104AF0008A68134E2A43114D124FA84203D0B04288
:104B000001D0B84206D122F0080CCA6842EA0C0271
:104B100022F00402A84203D0B04201D0B84205D12D
:104B20004D6923F440731D438B692B4343608461BB
:104B3000496841630262F0BD8FFFFEFF002C014017
:104B4000004001400044014030B5026A22F01002EA
:104B50000262046A42688369154D2B400D6823F494
:104B6000407343EA052524F020038C6843EA0413CC
:104B7000104CA04207D1CC6823F0800343EA041311
:104B800023F0400305E00C4CA04202D00B4CA042A5
:104B900007D14C6922F4406242EA84028C6942EAFD
:104BA00084024260856149688163036230BD000010
:104BB000FF8FFFFE002C01400040014000440140F7
:104BC00030B5026A22F480720262046A4268C369E4
:104BD000144D2B400D6823F003031D4324F4007390
:104BE0008C6843EA0423104CA04207D1CC6823F41C
:104BF000006343EA042323F4806305E00B4CA042E6
:104C000002D00B4CA04207D14C6922F4405242EA38
:104C100004128C6942EA04124260C5614968C163AA
:104C2000036230BD8FFFFEFF002C014000400140B9
:104C30000044014030B5026A22F480520262046AE4
:104C40004268C3690F4D24F400542B400D6823F4CF
:104C5000407343EA05238D6844EA05340A4DA842AF
:104C600005D00A4DA84202D0094DA84204D14D6991
:104C700022F4804242EA85124260C36149680164BD
:104C8000046230BDFF8FFFFE002C01400040014058
:104C90000044014030B5026A22F480320262046AA4
:104CA0004268436D0E4D2B400D681D4324F40033C4
:104CB0000C8943EA04430B4CA04205D00A4CA042A5
:104CC00002D00A4CA04204D14C6922F4803242EA5C
:104CD00004224260456549688165036230BD000079
:104CE0008FFFFEFF002C01400040014000440140C6
:104CF00030B5026A22F480120262046A4268436D8F
:104D00000E4D24F400142B400D6843EA05230D8951
:104D100044EA05540A4DA84205D00A4DA84202D0E3
:104D2000094DA84204D14D6922F4802242EA85222D
:104D3000426043654968C165046230BDFF8FFFFE74
:104D4000002C0140004001400044014030B40D4CB3
:104D5000002104F10805236855F82120824202D180
:104D600054F8213003E0491C89B20229F4D382426D
:104D700005D1D3F88000002801D030BC004730BCFA
:104D80007047000028000020F0B500231C4617E003
:104D9000D0E90456B54201D106889EB911F8017BCD
:104DA0006E1C06612F70D0E904565B1C9BB2B542A5
:104DB00008D0C668B54201D185680561641CA4B2FB
:104DC0009442E5D3012180F821100188194489B269
:104DD000018090F82140022C02D14488091B0180F7
:104DE000002180F82110934202D28188491C8180E1
:104DF000F0BD90F82410C90706D001684A68836A9C
:104E000022F400321A434A6090F82410890706D52C
:104E100001684A68C36A22F480321A434A6090F8F3
:104E20002410490706D501684A68036B22F48022E2
:104E30001A434A6090F82410090706D501684A68A9
:104E4000436B22F400421A434A6090F82410C906CA
:104E500006D501688A68836B22F480521A438A60FF
:104E600090F82410890606D501688A68C36B22F47D
:104E700000521A438A6090F82410490611D501683F
:104E80004A68036C22F480121A434A60016CB1F53F
:104E9000801F06D101684A68436C22F4C0021A439D
:104EA0004A6090F82410090606D501684A68806CAB
:104EB00022F4002202434A607047F8B500260446F7
:104EC000C0F88060FEF768F80546206800686FF05B
:104ED0007E47000708D52B4600224FF400112046DC
:104EE000009700F03DFA60B92068006840070AD5D5
:104EF0002B4600224FF480012046009700F030FA44
:104F000008B10320F8BD2020A067E067266684F87A
:104F100074600020F8BD10B5806A0021A0F85A1016
:104F2000A0F85210FFF739F910BD01680A6822F4A1
:104F300090720A6001688A6822F001028A60016E3C
:104F4000012904D101680A6822F010020A602021B8
:104F5000C167002101664166704770B5B0F85C100A
:104F6000C26F04460068222A04D0018B41F0080178
:104F7000018370BD808C626D08401080606D801C64
:104F80006065B4F85A00401EA4F85A00B4F85A00FC
:104F90000028EED12068016821F49071016020683A
:104FA000816821F0010181602020E06700256566AD
:104FB000206E012804D02046FFF7B6FA256670BDA2
:104FC0002068016821F010010160B4F858102046F3
:104FD000FFF7E1F8F2E770B5B0F85C10C26F044675
:104FE0000068222A04D0018B41F00801018370BDC2
:104FF000808C0840616D0870606D401C6065B4F87D
:105000005A00401EA4F85A00B4F85A000028EED105
:105010002068016821F4907101602068816821F0A6
:10502000010181602020E06700256566206E01286F
:1050300004D02046FFF778FA256670BD2068016825
:1050400021F010010160B4F858102046FFF7A3F8D2
:10505000F2E700002DE9F04104460168806822690A
:10506000E3691043626900251A431043714F0A68CF
:10507000714B1A4002430A6020684168E26821F4DB
:105080004051114341602168A069B94201D0226AB0
:1050900010438A6822F4306202438A6067492368B9
:1050A00067488B420DD1D0F8880010F0030006D07D
:1050B000012847D0022843D0032830D144E0012101
:1050C0002EE060498B420BD1D0F8880010F00C0024
:1050D00034D0042836D0082832D00C281FD133E031
:1050E00059498B420BD1D0F8880010F0300025D000
:1050F000102827D0202823D0302810D124E0BB420C
:105100000DD1D0F8880010F4406017D0B0F5806F52
:1051100018D0B0F5006F13D0B0F5406F14D0102147
:105120004A4A00264FF40040BB422DD171B10229FA
:105130000FD004290FD0082972D10FE00021EFE72A
:105140000221EDE70421EBE70821E9E7FEF77EF90C
:1051500003E0104602E0FEF79DF9E0B3626802EB5F
:10516000420181425CD8B0EB023F59D8010E0302E4
:105170005008181871410023FBF7CEF8344AA0F507
:10518000407191424ED94BE0E3694FF6EF7783428D
:1051900028D1092944D2DFE801F005080B430D436B
:1051A00043431000FEF752F906E0FEF761F903E011
:1051B000104602E0FEF76EF968B14100606801EB4D
:1051C0005001B1FBF0F081B2A1F11000B84227D834
:1051D0004FF6F07200E027E001EA0200C1F342015D
:1051E00008431FE009291BD2DFE801F005080B1A6C
:1051F0000D1A1A1A1000FEF729F906E0FEF738F921
:1052000003E0104602E0FEF745F968B1616800EB83
:105210005100B0FBF1F080B2A0F11001B94201D908
:10522000012501E02168C86066662846A666BDE8DB
:10523000F081000000800040F369FFEF003801407A
:105240000010024000440040004800400024F400E8
:10525000FFFC0F0030B54165A0F85820A0F85A2097
:105260000022426681684FF48055FF23A94204D191
:10527000016921BB40F2FF1127E07F24E9B1B1F1C0
:10528000805F1FD0A0F85C20C0F880202221C16779
:1052900001688B6843F001038B608168A94201D1EA
:1052A0000169C1B10D49416680F874200068016848
:1052B00041F490710160002030BD016941B9A0F84E
:1052C0005C30E1E7016919B13F21A0F85C10DBE730
:1052D000A0F85C40D8E70249E5E70000D74F000896
:1052E0005B4F0008816F212910D1B0F8521071B1C5
:1052F000C16C02680988C1F308011185C16C891C61
:10530000C164B0F85210491EA0F8521070470168ED
:105310000A6822F080020A600068016841F04001DA
:1053200001607047816F21290ED1B0F8521061B130
:10533000C16C026809781185C16C491CC164B0F860
:105340005210491EA0F85210704701680A6822F0F6
:1053500080020A600068016841F040010160704706
:105360002DE9F0479A4617460E4604464FF00009CD
:105370004FF02008089D39E0681C37D0FDF70CFE7F
:10538000A0EB0A00A84222D80DB3206801684907A3
:105390002CD5C069C043000528D421684FF40060B3
:1053A00008622068016821F4D0710160206881687A
:1053B00021F001018160C4F87880C4F87C80C4F8D1
:1053C000808000BF84F874900320BDE8F0872068D7
:1053D000016821F4D07101602068816821F0010129
:1053E0008160C4F87880C4F87C80EBE72068C069ED
:1053F00036EA000004D00020B842BDD00020E4E727
:105400000120F9E70148FEF7C9BE00004001002075
:1054100090F82010002912D00388002B0FD0002113
:1054200080F8201082894169521A92B2934202D8C0
:1054300043801A4600E042800148FFF7A1B8704758
:1054400040010020104800214FF40072018041808B
:105450008180C280A0F500720346C0E90223026188
:1054600042610A4A82610A4AC261022280F820200F
:1054700080F82110074A111F098842F82100121DE7
:10548000054842F82100704770050020894D00084A
:10549000115400083C00002040010020FEE703B446
:1054A00001984100009850EAC12018BF04204A0D1D
:1054B00018BF40F0010040F2FF72B2EB515F08BF2D
:1054C00040F00200012808BF052002B0704709071C
:1054D000090E002804DB00F1E02080F8001470477A
:1054E00000F00F0000F1E02080F8141D704700006C
:1054F00030B52DED048B81B0B0EE408AF0EE608ABD
:105500006A4651EC180B00F02FF900989FED329B82
:105510007E300090002821DC53EC192B51EC180B45
:1055200000F05CFC1AD0002140F608004FF00000AB
:10553000044651EC180B00F00BFA08EE100A40F686
:10554000080004EA00014FF00000B5EEC08AF1EE59
:1055500010FA04BF0220FAF7BEFF2DE00098FF28E2
:1055600030DB002108464FF0000000F4400553EC0A
:10557000192B51EC180B00F02FFE8CBF00240124D6
:105580000220FAF7A8FF9FED168A4DB1002C0CBF40
:105590004FF400004FF48000A84218BF9FED118A1D
:1055A000042108464FF00000002C01BFB1EE480A6C
:1055B00001B0BDEC048B30BDB0EE480A01B0BDECCB
:1055C000048B30BD51EC180B00F0C2F901B000EEB5
:1055D000100ABDEC048B30BD00000000000000008C
:1055E0000000807FFFFF7F7F30B583B00446FAF76D
:1055F0006DFF9FED090B05468DED000B0022214646
:105600006846FBF747FA2846FAF765FF9DED000B61
:1056100003B030BD000000000000000000000000EA
:1056200030B540F2FF742DED048BF0EE608A18EE79
:10563000901A85B0B0EE408A9FED2B9B05468DED0C
:10564000008B34EA115147D053EC192B51EC180B55
:1056500000F0C4FB40D02A4651EC180B00F01FFFAD
:1056600041EC180B18EE900A8DED008B34EA1050C7
:105670001CD053EC192B51EC180B00F0AFFB2BD1C5
:105680000220FAF728FF00F043F810EE901A18EE07
:10569000900A8DED020B8DED008B61F31E000390DF
:1056A0009DED020B05B0BDEC048B30BD0220FAF776
:1056B00012FF00F01DF810EE901A18EE900A8DED12
:1056C000020B8DED008B61F31E0003909DED020B2C
:1056D00005B0BDEC048B30BD05B0B0EE480AF0EE6D
:1056E000680ABDEC048B30BD000000000000000023
:1056F0009FED050B10B553EC102B51EC100B00F087
:105700006DFC41EC100B10BD0000000000000070AB
:105710009FED050B10B553EC102B51EC100B00F066
:105720005DFC41EC100B10BD0000000000000010FB
:1057300010B5044691ED000BFFF7DAFE84ED000A88
:1057400010BD10B5044690ED000B0846FFF768FF4A
:1057500084ED000B10BD30380A2801D201207047BB
:10576000002070470000000010B582B01446CDE95B
:1057700000010023009A2360194B21F00040984259
:105780002ADA024328D0B0F5801FA8BF226810DAB9
:105790009FED150B53EC102B9DED000B51EC100BF6
:1057A00000F01CFCCDE900016FF0350221F0004053
:1057B00022600F4B6FF31E5103EB2050104420600A
:1057C00041F0FF5040F0005001909DED000B00BFF4
:1057D00002B051EC100B10BD9DED000BF8E700007E
:1057E0000000F07F000000000000000000005043B7
:1057F00002FCFFFF704700002DED028BFDF7DAFB86
:10580000FFF74EF8FEF714FFFEF7A4FFFEF752FF76
:10581000FEF7C4FF2D4D286800F090FB9FED2C8B08
:1058200053EC182B00F082F900F044FBFFF718F856
:10583000294C012638B366603706286800F07EFBE5
:10584000884605466068401C606048EC105B53EC7D
:10585000182B51EC100B00F069F900F02BFB61687C
:10586000B0FBF1F0B842EDD248EC105B53EC182BD2
:1058700051EC100B00F05AF900F01CFB6168B0FB12
:10588000F1F0FEF7EDFF6068A060134D00272F7068
:10589000FDF726F813489FED110B012280ED060B52
:1058A000691C1148FEF71CFEDFF84080A068002844
:1058B000FCD16068A060287818B1D8F800000CA16D
:1058C00001602E70FDF7A8F82F70EFE71800002098
:1058D0000000000000408F40000000200000000099
:1058E0000000F03FD8010020400100208065000842
:1058F0004F76657272756E0010B500290AD008786F
:10590000002807D005487844FCF71AF9002801D090
:10591000002010BD0248784410BD0000B60D000004
:10592000AE0D000010B500290AD00878002807D075
:1059300005487844FCF704F9002801D0002010BD88
:105940000248784410BD0000A60D00009E0D000026
:1059500021F00042A2F16052B2F5801F01F0004335
:1059600028BFD2F17F6C0BD95FEA001C43EAC20268
:1059700042EB507018BF704728BF20F001007047FD
:10598000B2F5801FBCBF184670474FEA410C1CF5AA
:10599000001F02D2084600F044BD70B500F0C8FBFD
:1059A00000000089FFF7F6BF4FF00040A0F580002F
:1059B0007047000010B591EA030F48BF83F0004321
:1059C00000F14884841A71EB030C05D2121943EBE1
:1059D0000C03001B61EB0C01DFF824E14FEA1154CA
:1059E000A4EB135C1EEA430F18BF9EEA445F73D01A
:1059F00023EA0E03DCF1200E21EA045143F4801364
:105A000032D322FA0CFE10EB0E0023FA0CFE41EB0F
:105A10000E01CCF1200E03FA0EFE10EB0E0051F138
:105A20000001B1F5801FCCF1200E32D201EB045100
:105A300012FA0EF2BDE8104058BF7047401C38BF44
:105A40005FEA420218BF7047002814BF20F001002F
:105A500041F100014FEA410313F5001F38BF7047C1
:105A6000A1F1C04100F0B2BB012A43EB0302ACF14B
:105A7000200CDCF11F0E32BF4FF0000E23FA0CF3A6
:105A800010EB030041EB0451B4EB115FD0D0A1EB5C
:105A9000045101F5801149085FEA300001EB04511F
:105AA0000ED350F1000038BF12FA0EFE08D1BDE847
:105AB0001040C9E7401C38BF5FEA4202CAD1C3E7C1
:105AC000BDE810404FEA410313F5001F38BF70478F
:105AD000A1F1C04100F07ABB9EEA445F08D011EA10
